{
  "contractName": "WildCoin",
  "abi": [
    {
      "constant": true,
      "inputs": [],
      "name": "name",
      "outputs": [
        {
          "name": "",
          "type": "string"
        }
      ],
      "payable": false,
      "stateMutability": "view",
      "type": "function"
    },
    {
      "constant": true,
      "inputs": [],
      "name": "totalSupply",
      "outputs": [
        {
          "name": "",
          "type": "uint256"
        }
      ],
      "payable": false,
      "stateMutability": "view",
      "type": "function"
    },
    {
      "constant": true,
      "inputs": [],
      "name": "difficulty",
      "outputs": [
        {
          "name": "",
          "type": "uint256"
        }
      ],
      "payable": false,
      "stateMutability": "view",
      "type": "function"
    },
    {
      "constant": true,
      "inputs": [],
      "name": "decimals",
      "outputs": [
        {
          "name": "",
          "type": "uint8"
        }
      ],
      "payable": false,
      "stateMutability": "view",
      "type": "function"
    },
    {
      "constant": true,
      "inputs": [],
      "name": "minBalanceForAccounts",
      "outputs": [
        {
          "name": "",
          "type": "uint256"
        }
      ],
      "payable": false,
      "stateMutability": "view",
      "type": "function"
    },
    {
      "constant": true,
      "inputs": [],
      "name": "sellPrice",
      "outputs": [
        {
          "name": "",
          "type": "uint256"
        }
      ],
      "payable": false,
      "stateMutability": "view",
      "type": "function"
    },
    {
      "constant": true,
      "inputs": [],
      "name": "currentChallenge",
      "outputs": [
        {
          "name": "",
          "type": "bytes32"
        }
      ],
      "payable": false,
      "stateMutability": "view",
      "type": "function"
    },
    {
      "constant": true,
      "inputs": [
        {
          "name": "",
          "type": "address"
        }
      ],
      "name": "balanceOf",
      "outputs": [
        {
          "name": "",
          "type": "uint256"
        }
      ],
      "payable": false,
      "stateMutability": "view",
      "type": "function"
    },
    {
      "constant": true,
      "inputs": [],
      "name": "timeOfLastProof",
      "outputs": [
        {
          "name": "",
          "type": "uint256"
        }
      ],
      "payable": false,
      "stateMutability": "view",
      "type": "function"
    },
    {
      "constant": true,
      "inputs": [],
      "name": "buyPrice",
      "outputs": [
        {
          "name": "",
          "type": "uint256"
        }
      ],
      "payable": false,
      "stateMutability": "view",
      "type": "function"
    },
    {
      "constant": true,
      "inputs": [],
      "name": "owner",
      "outputs": [
        {
          "name": "",
          "type": "address"
        }
      ],
      "payable": false,
      "stateMutability": "view",
      "type": "function"
    },
    {
      "constant": true,
      "inputs": [],
      "name": "symbol",
      "outputs": [
        {
          "name": "",
          "type": "string"
        }
      ],
      "payable": false,
      "stateMutability": "view",
      "type": "function"
    },
    {
      "constant": true,
      "inputs": [
        {
          "name": "",
          "type": "address"
        }
      ],
      "name": "frozenAccount",
      "outputs": [
        {
          "name": "",
          "type": "bool"
        }
      ],
      "payable": false,
      "stateMutability": "view",
      "type": "function"
    },
    {
      "constant": false,
      "inputs": [],
      "name": "owned",
      "outputs": [],
      "payable": false,
      "stateMutability": "nonpayable",
      "type": "function"
    },
    {
      "constant": false,
      "inputs": [
        {
          "name": "newOwner",
          "type": "address"
        }
      ],
      "name": "transferOwnership",
      "outputs": [],
      "payable": false,
      "stateMutability": "nonpayable",
      "type": "function"
    },
    {
      "inputs": [
        {
          "name": "initialSupply",
          "type": "uint256"
        },
        {
          "name": "coinSymbol",
          "type": "string"
        },
        {
          "name": "decimalUnits",
          "type": "uint8"
        },
        {
          "name": "centralMinter",
          "type": "address"
        }
      ],
      "payable": false,
      "stateMutability": "nonpayable",
      "type": "constructor"
    },
    {
      "anonymous": false,
      "inputs": [
        {
          "indexed": true,
          "name": "from",
          "type": "address"
        },
        {
          "indexed": true,
          "name": "to",
          "type": "address"
        },
        {
          "indexed": false,
          "name": "value",
          "type": "uint256"
        }
      ],
      "name": "Transfer",
      "type": "event"
    },
    {
      "anonymous": false,
      "inputs": [
        {
          "indexed": false,
          "name": "target",
          "type": "address"
        },
        {
          "indexed": false,
          "name": "frozen",
          "type": "bool"
        }
      ],
      "name": "FrozenFunds",
      "type": "event"
    },
    {
      "constant": false,
      "inputs": [
        {
          "name": "to",
          "type": "address"
        },
        {
          "name": "value",
          "type": "uint256"
        }
      ],
      "name": "transfer",
      "outputs": [],
      "payable": false,
      "stateMutability": "nonpayable",
      "type": "function"
    },
    {
      "constant": false,
      "inputs": [
        {
          "name": "target",
          "type": "address"
        },
        {
          "name": "mintedAmount",
          "type": "uint256"
        }
      ],
      "name": "mintToken",
      "outputs": [],
      "payable": false,
      "stateMutability": "nonpayable",
      "type": "function"
    },
    {
      "constant": false,
      "inputs": [
        {
          "name": "target",
          "type": "address"
        },
        {
          "name": "freeze",
          "type": "bool"
        }
      ],
      "name": "freezeAccount",
      "outputs": [],
      "payable": false,
      "stateMutability": "nonpayable",
      "type": "function"
    },
    {
      "constant": false,
      "inputs": [
        {
          "name": "newSellPrice",
          "type": "uint256"
        },
        {
          "name": "newBuyPrice",
          "type": "uint256"
        }
      ],
      "name": "setPrices",
      "outputs": [],
      "payable": false,
      "stateMutability": "nonpayable",
      "type": "function"
    },
    {
      "constant": false,
      "inputs": [],
      "name": "buy",
      "outputs": [
        {
          "name": "amount",
          "type": "uint256"
        }
      ],
      "payable": true,
      "stateMutability": "payable",
      "type": "function"
    },
    {
      "constant": false,
      "inputs": [
        {
          "name": "amount",
          "type": "uint256"
        }
      ],
      "name": "sell",
      "outputs": [
        {
          "name": "revenue",
          "type": "uint256"
        }
      ],
      "payable": false,
      "stateMutability": "nonpayable",
      "type": "function"
    },
    {
      "constant": false,
      "inputs": [
        {
          "name": "minimumBalanceInFinney",
          "type": "uint256"
        }
      ],
      "name": "setMinBalance",
      "outputs": [],
      "payable": false,
      "stateMutability": "nonpayable",
      "type": "function"
    },
    {
      "constant": false,
      "inputs": [
        {
          "name": "nonce",
          "type": "uint256"
        }
      ],
      "name": "proofOfWork",
      "outputs": [],
      "payable": false,
      "stateMutability": "nonpayable",
      "type": "function"
    }
  ],
  "bytecode": "0x60806040526d04ee2d6d415b85acef81000000006007553480156200002357600080fd5b50604051620017553803806200175583398101806040528101908080519060200190929190805182019291906020018051906020019092919080519060200190929190505050836009819055506040805190810160405280600881526020017f57696c64436f696e00000000000000000000000000000000000000000000000081525060039080519060200190620000bd92919062000165565b508260049080519060200190620000d692919062000165565b5081600860006101000a81548160ff021916908360ff1602179055504260068190555060008173ffffffffffffffffffffffffffffffffffffffff161415156200015b57806000806101000a81548173ffffffffffffffffffffffffffffffffffffffff021916908373ffffffffffffffffffffffffffffffffffffffff1602179055505b5050505062000214565b828054600181600116156101000203166002900490600052602060002090601f016020900481019282601f10620001a857805160ff1916838001178555620001d9565b82800160010185558215620001d9579182015b82811115620001d8578251825591602001919060010190620001bb565b5b509050620001e89190620001ec565b5090565b6200021191905b808211156200020d576000816000905550600101620001f3565b5090565b90565b61153180620002246000396000f300608060405260043610610133576000357c0100000000000000000000000000000000000000000000000000000000900463ffffffff16806305fefda71461013857806306fdde031461016f57806318160ddd146101ff57806319cae4621461022a578063313ce5671461025557806347f1d8d7146102865780634b750334146102b157806351bdd585146102dc5780635c10fe081461030f57806370a082311461033c57806379c650681461039357806381c8149d146103e05780638620410b1461040b5780638da5cb5b1461043657806395d89b411461048d578063a6f2ae3a1461051d578063a9059cbb1461053b578063b414d4b614610588578063c91d956c146105e3578063df32754b14610610578063e4849b3214610627578063e724529c14610668578063f2fde38b146106b7575b600080fd5b34801561014457600080fd5b5061016d60048036038101908080359060200190929190803590602001909291905050506106fa565b005b34801561017b57600080fd5b50610184610767565b6040518080602001828103825283818151815260200191508051906020019080838360005b838110156101c45780820151818401526020810190506101a9565b50505050905090810190601f1680156101f15780820380516001836020036101000a031916815260200191505b509250505060405180910390f35b34801561020b57600080fd5b50610214610805565b6040518082815260200191505060405180910390f35b34801561023657600080fd5b5061023f61080b565b6040518082815260200191505060405180910390f35b34801561026157600080fd5b5061026a610811565b604051808260ff1660ff16815260200191505060405180910390f35b34801561029257600080fd5b5061029b610824565b6040518082815260200191505060405180910390f35b3480156102bd57600080fd5b506102c661082a565b6040518082815260200191505060405180910390f35b3480156102e857600080fd5b506102f1610830565b60405180826000191660001916815260200191505060405180910390f35b34801561031b57600080fd5b5061033a60048036038101908080359060200190929190505050610836565b005b34801561034857600080fd5b5061037d600480360381019080803573ffffffffffffffffffffffffffffffffffffffff1690602001909291905050506109a2565b6040518082815260200191505060405180910390f35b34801561039f57600080fd5b506103de600480360381019080803573ffffffffffffffffffffffffffffffffffffffff169060200190929190803590602001909291905050506109ba565b005b3480156103ec57600080fd5b506103f5610b6d565b6040518082815260200191505060405180910390f35b34801561041757600080fd5b50610420610b73565b6040518082815260200191505060405180910390f35b34801561044257600080fd5b5061044b610b79565b604051808273ffffffffffffffffffffffffffffffffffffffff1673ffffffffffffffffffffffffffffffffffffffff16815260200191505060405180910390f35b34801561049957600080fd5b506104a2610b9e565b6040518080602001828103825283818151815260200191508051906020019080838360005b838110156104e25780820151818401526020810190506104c7565b50505050905090810190601f16801561050f5780820380516001836020036101000a031916815260200191505b509250505060405180910390f35b610525610c3c565b6040518082815260200191505060405180910390f35b34801561054757600080fd5b50610586600480360381019080803573ffffffffffffffffffffffffffffffffffffffff16906020019092919080359060200190929190505050610da1565b005b34801561059457600080fd5b506105c9600480360381019080803573ffffffffffffffffffffffffffffffffffffffff169060200190929190505050610db0565b604051808215151515815260200191505060405180910390f35b3480156105ef57600080fd5b5061060e60048036038101908080359060200190929190505050610dd0565b005b34801561061c57600080fd5b50610625610e3e565b005b34801561063357600080fd5b5061065260048036038101908080359060200190929190505050610e80565b6040518082815260200191505060405180910390f35b34801561067457600080fd5b506106b5600480360381019080803573ffffffffffffffffffffffffffffffffffffffff169060200190929190803515159060200190929190505050611029565b005b3480156106c357600080fd5b506106f8600480360381019080803573ffffffffffffffffffffffffffffffffffffffff16906020019092919050505061114e565b005b6000809054906101000a900473ffffffffffffffffffffffffffffffffffffffff1673ffffffffffffffffffffffffffffffffffffffff163373ffffffffffffffffffffffffffffffffffffffff1614151561075557600080fd5b81600a8190555080600b819055505050565b60038054600181600116156101000203166002900480601f0160208091040260200160405190810160405280929190818152602001828054600181600116156101000203166002900480156107fd5780601f106107d2576101008083540402835291602001916107fd565b820191906000526020600020905b8154815290600101906020018083116107e057829003601f168201915b505050505081565b60095481565b60075481565b600860009054906101000a900460ff1681565b60055481565b600a5481565b600c5481565b60008082600c54604051808381526020018260001916600019168152602001925050506040518091039020915060075478010000000000000000000000000000000000000000000000000277ffffffffffffffffffffffffffffffffffffffffffffffff19168277ffffffffffffffffffffffffffffffffffffffffffffffff1916101515156108c557600080fd5b60065442039050600581101515156108dc57600080fd5b603c818115156108e857fe5b04600160003373ffffffffffffffffffffffffffffffffffffffff1673ffffffffffffffffffffffffffffffffffffffff168152602001908152602001600020600082825401925050819055506001816102586007540281151561094857fe5b04016007819055504260068190555082600c546001430340604051808481526020018360001916600019168152602001826000191660001916815260200193505050506040518091039020600c8160001916905550505050565b60016020528060005260406000206000915090505481565b6000809054906101000a900473ffffffffffffffffffffffffffffffffffffffff1673ffffffffffffffffffffffffffffffffffffffff163373ffffffffffffffffffffffffffffffffffffffff16141515610a1557600080fd5b80600160008473ffffffffffffffffffffffffffffffffffffffff1673ffffffffffffffffffffffffffffffffffffffff16815260200190815260200160002060008282540192505081905550806009600082825401925050819055506000809054906101000a900473ffffffffffffffffffffffffffffffffffffffff1673ffffffffffffffffffffffffffffffffffffffff1660007fddf252ad1be2c89b69c2b068fc378daa952ba7f163c4a11628f55a4df523b3ef836040518082815260200191505060405180910390a38173ffffffffffffffffffffffffffffffffffffffff166000809054906101000a900473ffffffffffffffffffffffffffffffffffffffff1673ffffffffffffffffffffffffffffffffffffffff167fddf252ad1be2c89b69c2b068fc378daa952ba7f163c4a11628f55a4df523b3ef836040518082815260200191505060405180910390a35050565b60065481565b600b5481565b6000809054906101000a900473ffffffffffffffffffffffffffffffffffffffff1681565b60048054600181600116156101000203166002900480601f016020809104026020016040519081016040528092919081815260200182805460018160011615610100020316600290048015610c345780601f10610c0957610100808354040283529160200191610c34565b820191906000526020600020905b815481529060010190602001808311610c1757829003601f168201915b505050505081565b6000600b5434811515610c4b57fe5b04905080600160003073ffffffffffffffffffffffffffffffffffffffff1673ffffffffffffffffffffffffffffffffffffffff1681526020019081526020016000205410151515610c9c57600080fd5b80600160003373ffffffffffffffffffffffffffffffffffffffff1673ffffffffffffffffffffffffffffffffffffffff1681526020019081526020016000206000828254019250508190555080600160003073ffffffffffffffffffffffffffffffffffffffff1673ffffffffffffffffffffffffffffffffffffffff168152602001908152602001600020600082825403925050819055503373ffffffffffffffffffffffffffffffffffffffff163073ffffffffffffffffffffffffffffffffffffffff167fddf252ad1be2c89b69c2b068fc378daa952ba7f163c4a11628f55a4df523b3ef836040518082815260200191505060405180910390a380905090565b610dac3383836111ec565b5050565b60026020528060005260406000206000915054906101000a900460ff1681565b6000809054906101000a900473ffffffffffffffffffffffffffffffffffffffff1673ffffffffffffffffffffffffffffffffffffffff163373ffffffffffffffffffffffffffffffffffffffff16141515610e2b57600080fd5b66038d7ea4c68000810260058190555050565b336000806101000a81548173ffffffffffffffffffffffffffffffffffffffff021916908373ffffffffffffffffffffffffffffffffffffffff160217905550565b6000338280600160008473ffffffffffffffffffffffffffffffffffffffff1673ffffffffffffffffffffffffffffffffffffffff1681526020019081526020016000205410151515610ed257600080fd5b83600160003073ffffffffffffffffffffffffffffffffffffffff1673ffffffffffffffffffffffffffffffffffffffff1681526020019081526020016000206000828254019250508190555083600160003373ffffffffffffffffffffffffffffffffffffffff1673ffffffffffffffffffffffffffffffffffffffff16815260200190815260200160002060008282540392505081905550600a54840292503373ffffffffffffffffffffffffffffffffffffffff166108fc849081150290604051600060405180830381858888f19350505050158015610fb9573d6000803e3d6000fd5b503073ffffffffffffffffffffffffffffffffffffffff163373ffffffffffffffffffffffffffffffffffffffff167fddf252ad1be2c89b69c2b068fc378daa952ba7f163c4a11628f55a4df523b3ef866040518082815260200191505060405180910390a38292505050919050565b6000809054906101000a900473ffffffffffffffffffffffffffffffffffffffff1673ffffffffffffffffffffffffffffffffffffffff163373ffffffffffffffffffffffffffffffffffffffff1614151561108457600080fd5b80600260008473ffffffffffffffffffffffffffffffffffffffff1673ffffffffffffffffffffffffffffffffffffffff16815260200190815260200160002060006101000a81548160ff0219169083151502179055507f48335238b4855f35377ed80f164e8c6f3c366e54ac00b96a6402d4a9814a03a58282604051808373ffffffffffffffffffffffffffffffffffffffff1673ffffffffffffffffffffffffffffffffffffffff168152602001821515151581526020019250505060405180910390a15050565b6000809054906101000a900473ffffffffffffffffffffffffffffffffffffffff1673ffffffffffffffffffffffffffffffffffffffff163373ffffffffffffffffffffffffffffffffffffffff161415156111a957600080fd5b806000806101000a81548173ffffffffffffffffffffffffffffffffffffffff021916908373ffffffffffffffffffffffffffffffffffffffff16021790555050565b828180600160008473ffffffffffffffffffffffffffffffffffffffff1673ffffffffffffffffffffffffffffffffffffffff168152602001908152602001600020541015151561123c57600080fd5b8383600160008373ffffffffffffffffffffffffffffffffffffffff1673ffffffffffffffffffffffffffffffffffffffff1681526020019081526020016000205481600160008573ffffffffffffffffffffffffffffffffffffffff1673ffffffffffffffffffffffffffffffffffffffff1681526020019081526020016000205401101515156112cd57600080fd5b86600260008273ffffffffffffffffffffffffffffffffffffffff1673ffffffffffffffffffffffffffffffffffffffff16815260200190815260200160002060009054906101000a900460ff1615151561132757600080fd5b86600260008273ffffffffffffffffffffffffffffffffffffffff1673ffffffffffffffffffffffffffffffffffffffff16815260200190815260200160002060009054906101000a900460ff1615151561138157600080fd5b60008873ffffffffffffffffffffffffffffffffffffffff16141515156113a757600080fd5b6005543373ffffffffffffffffffffffffffffffffffffffff163110156113fb576113f9600a543373ffffffffffffffffffffffffffffffffffffffff1631600554038115156113f357fe5b04610e80565b505b86600160008b73ffffffffffffffffffffffffffffffffffffffff1673ffffffffffffffffffffffffffffffffffffffff1681526020019081526020016000206000828254039250508190555086600160008a73ffffffffffffffffffffffffffffffffffffffff1673ffffffffffffffffffffffffffffffffffffffff168152602001908152602001600020600082825401925050819055508773ffffffffffffffffffffffffffffffffffffffff168973ffffffffffffffffffffffffffffffffffffffff167fddf252ad1be2c89b69c2b068fc378daa952ba7f163c4a11628f55a4df523b3ef896040518082815260200191505060405180910390a35050505050505050505600a165627a7a7230582088717a3ca6c64f3bb7f9602fb95b88406d541a03daa2c509dee59f4a617ed5620029",
  "source": "/*\n * originally from https://www.ethereum.org/token\n */\n\npragma solidity ^0.4.21;\n\ncontract Owned {\n  address public owner;\n\n  function owned() public {\n    owner = msg.sender;\n  }\n\n  modifier onlyOwner {\n    require(msg.sender == owner);\n    _;\n  }\n\n  function transferOwnership(address newOwner) public onlyOwner {\n    owner = newOwner;\n  }\n}\n\ncontract WildCoin is Owned {\n  event Transfer(address indexed from, address indexed to, uint256 value);\n  event FrozenFunds(address target, bool frozen);\n\n  mapping (address => uint256) public balanceOf;\n  mapping (address => bool) public frozenAccount;\n\n  string public name;\n  string public symbol;\n  uint public minBalanceForAccounts;\n  uint public timeOfLastProof;\n  uint public difficulty = 10**32;\n  uint8 public decimals;\n  uint256 public totalSupply;\n  uint256 public sellPrice;\n  uint256 public buyPrice;\n  bytes32 public currentChallenge;\n\n  function WildCoin (\n    uint256 initialSupply,\n    string coinSymbol,\n    uint8 decimalUnits,\n    address centralMinter\n  ) public {\n    totalSupply = initialSupply;\n    name = 'WildCoin';\n    symbol = coinSymbol;\n    decimals = decimalUnits;\n    timeOfLastProof = now;\n\n    if (centralMinter != 0) {\n      owner = centralMinter;\n    }\n  }\n\n  modifier hasEnoughValue(address account, uint256 value) {\n    require(balanceOf[account] >= value);\n    _;\n  }\n\n  modifier isValidTransfer(address to, uint256 value) {\n    require(balanceOf[to] + value >= balanceOf[to]);\n    _;\n  }\n\n  modifier isNotFrozen(address account) {\n    require(!frozenAccount[account]);\n    _;\n  }\n\n  function _transfer(address from, address to, uint value) internal\n    hasEnoughValue(from, value)\n    isValidTransfer(to, value)\n    isNotFrozen(from)\n    isNotFrozen(to)\n  {\n    require (to != 0x0);\n\n    if(msg.sender.balance < minBalanceForAccounts) {\n      sell((minBalanceForAccounts - msg.sender.balance) / sellPrice);\n    }\n\n    balanceOf[from] -= value;\n    balanceOf[to] += value;\n    emit Transfer(from, to, value);\n  }\n\n  function transfer (address to, uint256 value) public {\n    _transfer(msg.sender, to, value);\n  }\n\n  function mintToken(address target, uint256 mintedAmount) public onlyOwner {\n    balanceOf[target] += mintedAmount;\n    totalSupply += mintedAmount;\n    emit Transfer(0, owner, mintedAmount);\n    emit Transfer(owner, target, mintedAmount);\n  }\n\n  function freezeAccount(address target, bool freeze) public onlyOwner {\n    frozenAccount[target] = freeze;\n    emit FrozenFunds(target, freeze);\n  }\n\n  function setPrices(uint256 newSellPrice, uint256 newBuyPrice) public onlyOwner {\n    sellPrice = newSellPrice;\n    buyPrice = newBuyPrice;\n  }\n\n  function buy() public payable returns (uint amount) {\n    // the message senders calls the buy function.\n    // msg.value is like the actual currency like dollar\n    amount = msg.value / buyPrice;\n    // this is the address to execute the buy operation\n    require(balanceOf[this] >= amount);\n    // the buyer adds some coins\n    balanceOf[msg.sender] += amount;\n    balanceOf[this] -= amount;\n    emit Transfer(this, msg.sender, amount);\n    return amount;\n  }\n\n  function sell(uint amount) public\n    hasEnoughValue(msg.sender, amount)\n    returns (uint revenue)\n  {\n    balanceOf[this] += amount;\n    balanceOf[msg.sender] -= amount;\n    revenue = amount * sellPrice;\n    msg.sender.transfer(revenue);\n    emit Transfer(msg.sender, this, amount);\n    return revenue;\n  }\n\n  function setMinBalance(uint minimumBalanceInFinney) public onlyOwner {\n     minBalanceForAccounts = minimumBalanceInFinney * 1 finney;\n   }\n\n   function giveBlockReward() internal {\n    balanceOf[block.coinbase] += 1;\n  }\n\n  function proofOfWork(uint nonce) public {\n    bytes8 n = bytes8(keccak256(nonce, currentChallenge));\n    require(n >= bytes8(difficulty));\n\n    uint timeSinceLastProof = (now - timeOfLastProof);\n    require(timeSinceLastProof >=  5 seconds);\n    balanceOf[msg.sender] += timeSinceLastProof / 60 seconds;\n\n    difficulty = difficulty * 10 minutes / timeSinceLastProof + 1;\n\n    timeOfLastProof = now;\n    currentChallenge = keccak256(nonce, currentChallenge, block.blockhash(block.number - 1));\n  }\n\n}\n",
  "sourcePath": "/home/haoliang/Documents/Projects/wildcoin/contracts/WildCoin.sol",
  "compiler": {
    "name": "solc",
    "version": "0.4.23+commit.124ca40d.Emscripten.clang"
  },
  "schemaVersion": "2.0.0",
  "updatedAt": "2018-05-08T02:50:32.447Z"
}